:020000040800F2
:1000000060040020B1010008AB1000084110000896
:10001000A9100008F10300086911000800000000A1
:10002000000000000000000000000000B110000807
:10003000F303000800000000AD100008B310000832
:10004000CB010008CB010008CB010008CB01000860
:10005000CB010008AF100008CB010008CB0100085D
:10006000CB010008CB010008CB010008CB01000840
:10007000CB010008CB010008CB010008CB01000830
:10008000CB010008CB010008BD0200080000000001
:10009000000000000000000000000000CB0100088C
:1000A000CB010008CB010008CB010008CB01000800
:1000B000CB010008CB010008CB010008CB010008F0
:1000C000CB010008CB010008CB010008CB010008E0
:1000D000CB010008CB010008CB01000800000000A4
:1000E000CB010008CB010008CB0100080000000094
:1000F000000000000000000000000000CB0100082C
:1001000000000000CB010008CB010008CB01000873
:1001100000000000000000000000000000000000DF
:10012000CB010008CB010008CB010008CB0100087F
:10013000CB010008000000000000000000000000EB
:10014000000000000000000000000000CB010008DB
:10015000CB010008CB010008CB010008CB0100084F
:10016000CB010008CB0100080000000000000000E7
:10017000000000000000000000000000000000007F
:1001800000000000CB01000800000000000000009B
:10019000CB010008CB010008DFF810D000F07CF89C
:1001A00000480047A9110008AFF300806004002058
:1001B0000648804706480047FEE7FEE7FEE7FEE701
:1001C000FEE7FEE7FEE7FEE7FEE7FEE74D1100086B
:1001D000990100082DE9F05F0546002092469B46F4
:1001E00088460646814640241BE02846414647464D
:1001F000224600F041F853465A46C01A914110D3A6
:1002000011461846224600F028F82D1A67EB01081F
:100210004F4622460120002100F01FF817EB00098D
:100220004E41201EA4F10104DFDC484631462A4637
:100230004346BDE8F09FD2B201E000F8012B491E11
:10024000FBD270470022F6E710B513460A46044673
:100250001946FFF7F0FF204610BD202A04DB203AA4
:1002600000FA02F1002070479140C2F1200320FA09
:1002700003F3194390407047202A04DB203A21FA07
:1002800002F00021704721FA02F3D040C2F12002AF
:100290009140084319467047064C074D06E0E06858
:1002A00040F0010394E8070098471034AC42F6D3BD
:1002B000FFF776FFF811000818120008014800F057
:1002C00059B9000014000020464910B54A6822F4CC
:1002D00040324A604A6843681A434A6001684A6883
:1002E00022F480724A6001684A68036942EA032284
:1002F0004A6001684A6822F040724A6001684A68B0
:1003000083681A434A6001688A6822F400628A603E
:1003100001688A68C3681A438A60816A6FF07062F4
:10032000D14201688A6822F070628A6001688A6836
:100330000CD0836A1A438A6001688A6822F04052AE
:100340008A6001688A68C36A1A4301E022F0405259
:100350008A6001688A6822F002028A6001688A68FD
:10036000037E42EA43028A6090F820100029016867
:100370004A680FD042F400624A6001684A6822F479
:1003800060424A6001684A68174C436A04EB433391
:100390001A4301E022F400624A600168CA6A22F44A
:1003A0007002CA620168CA6A838B104C04EB035363
:1003B0001A43CA6201688A6822F400728A6001687E
:1003C0008A6890F8303042EA43228A6001688A687D
:1003D00022F480628A6001688A68406942EA80206B
:1003E000886010BD0023014000E0FFFF0000F0FF27
:1003F000FEE770477047000078B50024009490F83D
:100400003C20012A19D0012280F83C200A680723E9
:100410000568092A13D9EE680A3A02EB42029340B2
:100420009E43EE600B788A680A3B03EB43039A40D5
:100430000368DD682A43DA6010E0022078BD2E6987
:1004400002EB420293409E432E610B788A6803EBD5
:1004500043039A4003681D692A431A614A681F23AF
:10046000072A13D205686E6B521E02EB820293407C
:100470009E436E630A8893B20A79521E02EB82028F
:1004800093400268556B2B43536327E005680D2AA0
:1004900012D22E6BD21F02EB820293409E432E6338
:1004A0000B790A88DB1F92B203EB83039A4003683F
:1004B0001D6B2A431A6311E0EE6A0D3A02EB8202C9
:1004C00093409E43EE620B790A880D3B92B203EB98
:1004D00083039A400368DD6A2A43DA621B4B05688E
:1004E000194A9D420AD10D68122D07D1556825F48D
:1004F00000055560556845F48005556005689D42C6
:100500001DD1134D0B68AB4201D0112B17D153688D
:1005100023F480035360536843F400035360096875
:10052000A9420CD10B490C4A0968B1FBF2F101EB6D
:100530008101490000E0491E00910029FBD180F8AB
:100540003C40002078BD0000002301400020014015
:10055000120000101000002040420F0010B500F003
:1005600006F80149088010BD0000002070470068AF
:10057000C06C704770B50446006801684268C1F3FA
:100580004001C2F3401251B34AB3216CC90603D4EF
:10059000216C41F400712164816811F0405F17D132
:1005A000217EA9B9C16A11F4700F02D08168490592
:1005B0000ED4416821F020014160206C20F480704D
:1005C0002064206CC00403D4206C40F0010020643F
:1005D0002046FFF7C3FF21686FF012000860206813
:1005E00001684268C1F38001C2F3C01289B382B3CB
:1005F000216CC90603D4216C41F400512164816847
:1006000011F4401F1ED1816B11F4401F02D081688C
:10061000490517D44168490514D4816811F0405F39
:1006200010D1217E71B9416821F080014160206CB8
:1006300020F480502064206CC00503D4206C40F06E
:10064000010020642046FFF7D5FE21686FF00C0002
:10065000086020680168426811F0010FC2F380123F
:100660000ED06AB10068C0070AD0206C40F4803018
:100670002064204600F046F821686FF00100086011
:10068000206801684268C1F34011C2F3806200290A
:100690000DD0002A0BD0616C41F0020161646FF053
:1006A000200505602046FFF761FF2068056070BDEA
:1006B00070B504004FF0000503D0206C002610B187
:1006C00007E0012070BD204600F01EF8666484F843
:1006D0003C60206CC00610D4206C20F4885040F0A0
:1006E000020020642046FFF7EFFD6664206C20F0D6
:1006F000020040F00100206400E0012584F83C6025
:10070000284670BD7047000010B586B0044614211D
:100710006846FFF797FD15492068884224D11448A0
:100720000021026842F480720260006800F4807068
:1007300005900F481438026842F001020260006818
:1007400000F001000590012000900320CDE9010197
:100750006946084800F074F800221146122000F0A3
:10076000AFF9122000F09EF906B010BD0020014044
:10077000443802400000024018B50021009190F872
:100780003C20012A07D0012280F83C2002689368AF
:10079000DB0702D011E0022018BD936843F001038B
:1007A0009360224A224B1268B2FBF3F202EB420240
:1007B00000E0521E0092002AFBD102689368DB071A
:1007C00032D0036C40F20164A34343F480730364AA
:1007D00053685B0505D5036C23F4005343F4805341
:1007E0000364036CDB0404D5436C23F00603436409
:1007F00000E0416480F83C100E4B6FF02201116064
:1008000001684A680C4C22434A6059680068C9066E
:1008100002D00A49884207D1816811F0405F03D1B4
:10082000816841F080418160002018BD10000020E7
:1008300040420F000023014020000004002001403E
:100840002DE9F84F00224FF0010803254FF00F0E5D
:100850000B6808FA02F42340A34271D14E68012EBE
:1008600005D0022E03D0112E01D0122E15D186688C
:10087000570005FA07FC26EA0C06D1F80CC00CFA62
:1008800007FC4CEA060CC0F808C04668A6430C7981
:10089000C4F30014944034434460C668570005FA1A
:1008A00007FC8C6826EA0C06BC403443C4604C68E4
:1008B000022C01D0122C13D1D40800EB8404A346DF
:1008C000D4F8209054074FEAD46A0EFA0AF629EABF
:1008D00006090E6906FA0AF646EA0906CBF8206010
:1008E00004680E7924EA0C0406F00306BE40264391
:1008F00006604C68E40056D52E4C266846F48046C7
:100900002660246822F0030604F4804400942A4CF4
:100910003444A446D4F808489607370F0EFA07F671
:10092000B443264EB04201D1002615E0244EB04219
:1009300001D1012610E0234EB04202D102260BE085
:1009400031E0214EB04201D1032605E01F4EB042F6
:1009500001D1042600E00726BE402643CCF80868F3
:100960001B4E34684F689C43FF0300D51C43346022
:10097000174E361D34684F689C43BF0300D51C4397
:100980003460134E083634684F689C43FF0200D52C
:100990001C4334600E4E0C3634684F689C43BF02D3
:1009A00000D51C433460521C102AFFF451AFBDE83F
:1009B000F88F00004438024000300140000002403F
:1009C0000004024000080240000C024000100240F7
:1009D000003C01400148806870470000040000208E
:1009E0000248816802781144816070470400002049
:1009F0000B4810B5016841F400710160016841F4D1
:100A000080610160016841F480710160032000F0A1
:100A100077F8002000F006F800F024F8002010BD60
:100A2000003C024070B50D4D04464FF47A712878B1
:100A3000B1FBF0F00A490968B1FBF0F000F0ECFA04
:100A400048B9102C07D200222146501E00F038F879
:100A500000206C6070BD012070BD0000040000200B
:100A6000100000200E4808B5016841F48041016083
:100A7000006800F4804000900948001F016841F0C0
:100A8000805101600068002200F080500090114603
:100A9000052000F015F8BDE80840052000F002B878
:100AA00044380240002809DB00F01F020121914078
:100AB0004009800000F1E020C0F8001170470000FC
:100AC000F0B40E4B1B680C46C3F30223C3F10705B9
:100AD000042D00D90425191D072901D2002300E0A7
:100AE000DB1E012606FA05F1491E214099409E4071
:100AF000761E16403143F0BC00F037BB0CED00E031
:100B0000064900F0070208684FF6FF03184040EA64
:100B10000220034A10430860704700000CED00E01B
:100B20000000FA052DE9F0470E46050065D0DFF814
:100B30001481D8F80000F7B200F00F00B04207D2DD
:100B400088F80070D8F8000000F00F00B04254D1CF
:100B500028683D4C810712D5400703D5206840F432
:100B6000E05020602878000703D5206840F46040FA
:100B700020602068A96820F0F000084320602878F1
:100B8000C0072DD0304968680839012812D00228E2
:100B900013D0032811D00968890700292DDA2168AC
:100BA00021F0030101432160FFF714FF814641F268
:100BB000883A0EE009688903EFE709688901ECE7E4
:100BC000FFF708FFA0EB0901514502D90320BDE85A
:100BD000F0872068696800F00C00B0EB810FEFD15E
:100BE000D8F80010404601F00F01B14207D9077054
:100BF000006800F00F00B04201D00120E7E728783C
:100C0000400705D52068E96820F4E05008432060DB
:100C10002878000706D52068296920F4604040EA5A
:100C2000C100206000F018F82168084AC1F30311E0
:100C3000515CC8400649086006480068FFF7F2FEAC
:100C40000020C4E7003C024008380240E8110008D8
:100C50001000002008000020154810B5006810F0B2
:100C60000C02144813D01449042A0FD0082A0ED1BC
:100C70000F4C241F2268236802F03F025B0207D555
:100C80002068C0F38810A0FB010106E0084610BDF3
:100C90002168C1F38811A1FB00010023FFF79AFA34
:100CA0002168C1F30141491C4900B0FBF1F010BDBE
:100CB000083802400024F40040787D012DE9F84F07
:100CC00004006ED02078DFF83C93C007A9F104053A
:100CD0004AD009F104000168C1F38101012908D05B
:100CE0000068C0F3810002280AD1D9F80000400250
:100CF00006D52868800337D560680028E1D033E046
:100D00006068B0F5803F10D0B0F5A02F286810D0F3
:100D100020F480302860286820F4802028606068F3
:100D2000A8B1FFF757FE06460DE0286840F4803072
:100D3000F4E740F480202860F7E700BFFFF74AFEA1
:100D4000801B642873D828688003F7D50CE0FFF770
:100D500041FE064605E000BFFFF73CFE801B64280D
:100D6000F0D828688003F7D42078DFF89C828007C9
:100D70004FF0000A3ED5A348001D016811F00C0F8A
:100D800008D00068C0F3810002280BD1D9F8000018
:100D9000400207D42868800716D5E068012800D1F2
:100DA00012E02BE1E068B8B10120C8F80000FFF7BD
:100DB00011FE064605E000BFFFF70CFE801B02286F
:100DC000C0D828688007F7D52868216920F0F80086
:100DD00040EAC10028600DE0C8F800A0FFF7FAFD66
:100DE000064604E0FFF7F6FD801B02281FD828689E
:100DF0008007F7D42078000722D5824E83486169A6
:100E0000703671B101210160FFF7E4FD074604E08F
:100E1000FFF7E0FDC01B022809D830688007F7D52E
:100E20000EE0C0F800A0FFF7D5FD074605E082E020
:100E3000FFF7D0FDC01B02287DD830688007F7D4AB
:100E40002078400768D5DFF8BCB100270BF13C0BD8
:100E5000DBF80000C0000BD4DBF8001041F080513B
:100E6000CBF80010DBF80000012700F08050009064
:100E7000674E3068C00510D4306840F48070306030
:100E8000FFF7A8FD009005E0FFF7A4FD0099401AC8
:100E9000022850D83068C005F6D55A4EA0686C3686
:100EA00001280FD00528306810D020F001003060F4
:100EB000306820F004003060A068B8B1FFF78AFD08
:100EC00000900FE0306840F00100F4E740F00400CB
:100ED0003060F7E7FFF77EFD0099411A41F2883054
:100EE000814266D830688007F4D50EE0FFF772FDC6
:100EF000009007E0FFF76EFD0099411A41F288303B
:100F0000814256D830688007F4D42FB1DBF8001046
:100F100021F08051CBF80010A069C8B33949091DF0
:100F20000968C1F3810102294AD00228504607D03E
:100F3000C8F8600000E03CE0FFF74CFD04463BE0F1
:100F40004746C8F86000FFF745FD064605E000BFCC
:100F5000FFF740FD801B02282BD828688001F7D4BA
:100F6000D4E907010843A16A2A4A490802EB014172
:100F7000626A41EA8211084394F82C1040EA016148
:100F8000C9F8001001203866FFF724FD044606E08A
:100F900036E000BFFFF71EFD001B022809D82868B5
:100FA0008001F7D52CE000BFFFF714FD001B0228DD
:100FB00002D90320BDE8F88F28688001F4D41FE02F
:100FC0000128F7D0D9F80000E26900F480019142CD
:100FD00014D1226A00F03F0191420FD147F6C0714F
:100FE000626A0140914209D1A26A00F44031914203
:100FF00004D1E16A00F07060884201D00120D9E795
:101000000020D7E70438024000004742800E4742E4
:10101000007000400000FFFF10B5401EB0F1807F5F
:1010200001D3012010BD4FF0E02460610F21601753
:1010300000F09BF80020A06107202061002010BD77
:10104000FEE700007FB50024154800940194029447
:101050001249039401604FF48031C0E90114012565
:101060000461057680F820400E49C0E90A14C56184
:10107000C46080F830404561FFF71AFB08B172B6D2
:10108000FEE706200094CDE9015069460448FFF7C9
:10109000B3F9002801D072B6FEE77FBD0020014001
:1010A000140000200100000FFEE7FEE770477047C4
:1010B0007047FFF795BC000030B593B0302168460B
:1010C000FFF7C0F814210CA8FFF7BCF81D48002456
:1010D000016841F080510160006800F0805011907B
:1010E0001948016841F4404101600068022500F49C
:1010F0004040119001200090000401908001CDE952
:10110000065008204FF4C871CDE908010421CDE94B
:101110000A106846FFF7D2FD08B172B6FEE70F204D
:10112000CDE90C054FF48050CDE90E4003210CA809
:101130001094FFF7F7FC002801D072B6FEE713B059
:1011400030BD000040380240007000400548016892
:1011500041F47001016003494FF00060803908607C
:101160007047000088ED00E0FEE70907090E00283F
:1011700004DB00F1E02080F80014704700F00F005D
:1011800000F1E02080F8141D704702E008C8121F2B
:1011900008C1002AFAD170477047002001E001C160
:1011A000121F002AFBD1704708B5FFF721FCFFF79B
:1011B00083FF0B48016841F080010160016801F084
:1011C00080010091016841F001010160006800F0B8
:1011D00001000090FFF736FF0248FFF7CDFAFEE767
:1011E0003038024014000020000000000000000021
:1011F0000102030406070809181200080000002075
:10120000140000008A1100082C12000814000020AD
:101210004C0400009A1100080000000001000000CA
:0C12200010000000000000000024F4009A
:040000050800019955
:00000001FF
